:0A0000001EC049C049C0FCCFFBCF71
:10000A00FACFF9CFF8CFF7CFF6CFF5CFF4CFF3CFBA
:10001A00F2CFF1CFF0CFEFCFEECFEDCFECCFEBCFEA
:10002A003F065B4F666D7C077F6F00000100020090
:10003A0034000000F894EE27ECBBF1E0FBBFEBBF05
:10004A00E5BF8DE0A2E0BB27ED938A95E9F780E052
:10005A0092E0A0E6ED930197E9F7E6E3F0E08591F7
:10006A009591009761F0A591B59105901590BF0102
:10007A00F00105900D920197E1F7FB01F0CFEFE552
:10008A00EDBFE2E0EEBFC0EED0E03CC018950A92A8
:10009A001A92FA926A937A938A939A93AA93BA9340
:1000AA00EA93FA93EFB7EA93839902C0E89401C0FE
:1000BA00689421F820FE02C021FE01C00DC0F201A1
:1000CA0031962F01EAE0F0E0E415F50511F4442435
:1000DA005524A8E2B0E052D020FC02C021FC01C0A5
:1000EA0003C0A8E2B0E04AD0E991EFBFF991E991E3
:1000FA00B991A9919991899179916991F9901990F8
:10010A0009901895E0E0EABBEBBBEFEFE7BBE0E054
:10011A00E8BBE4BBE5BBE1BBE8E0E2BBE0E0E3BF90
:10012A00E2BFECBFEFBDEEBDEDBDECBDE7BDE6BD88
:10013A00EBBDEABDE9BDE8BDE2BDE5BDE4BDE3BD99
:10014A00E9BFEBB7E06CEBBFE8E0E5BFE0E0E4BF96
:10015A00E0ECEABFE0E0EAB9E0E8E8B9E0E0E0BFF5
:10016A00E6B9EDB9E6BF7894F201E65DFF4FE49196
:10017A00E095E8BB21FA20F8F7CFFFCF109639F0C7
:10018A00A8958AEF90E00197F1F71197C9F70895BA
:00000001FF
