:0600000025C053C05EC0E4
:10000600FCCFFBCFFACFF9CFF8CFF7CFF6CFF5CFAE
:10001600F4CFF3CFF2CFF1CFF0CFEFCFEECFEDCFDE
:10002600ECCFEBCF000000003F065B4F666D7C0710
:100036007F6F010002002A00010005002C000A0063
:10004600E0002E000000F894EE27ECBBF1E0FBBFC9
:10005600EBBFE5BFF8E1F1BDE1BD8DE0A2E0BB2756
:10006600ED938A95E9F780E092E0A0E6ED9301979B
:10007600E9F7E8E3F0E085919591009761F0A591A5
:10008600B59105901590BF01F00105900D9201976D
:10009600E1F7FB01F0CFEFE5EDBFE2E0EEBFC0EE2A
:1000A600D0E049C0EA93EFB7EA935394EAE0E51546
:1000B60009F45524E991EFBFE99118950A921A922D
:1000C600FA926A937A938A939A93AA93BA93EA9343
:1000D600FA93EFB7EA93839902C0E89401C0689453
:1000E60021F820FE02C021FE01C00DC05A94A52DA4
:1000F600EFEFB0E0FFEFEA17FB0711F4E9E05E2E41
:10010600A8E2B0E053D020FC02C021FC01C003C02D
:10011600A8E2B0E04BD021FA20F8E991EFBFF991BF
:10012600E991B991A9919991899179916991F990FA
:10013600199009901895E0E0EABBEBBBEFEFE7BB3F
:10014600E0E0E8BBE4BBE5BBE1BBE8E0E2BBE0E046
:10015600E3BFE2BFECBFEFBDEEBDEDBDECBDE7BD5D
:10016600E6BDEBBDEABDE9BDE8BDE2BDE5BDE4BD6A
:10017600E3BDE9BFEBB7E06CEBBFEBE0E5BFE0E06A
:10018600E4BFE0ECEABFE0E0EAB9E0E8E8B9E0E0C5
:10019600E0BFE6B9EDB9E6BF7894E52DF0E0E052B0
:1001A600FF4FE081E095E8BBF8CFFFCF109639F01E
:1001B600A8958AEF90E00197F1F71197C9F708958E
:00000001FF
