:0E00000025C0FECFFDCFFCCFFBCFFACFF9CF4E
:10000E00F8CFF7CFF6CFF5CFF4CFF3CFF2CFF1CFC6
:10001E00F0CFEFCFEECFEDCFECCFEBCF0000000067
:10002E003F065B4F666D7C077F6F010002002A0062
:10003E00020004002C000A00E0002E000000F894DC
:10004E00EE27ECBBF1E0FBBFEBBFE5BFF8E1F1BD86
:10005E00E1BD8DE0A2E0BB27ED938A95E9F780E044
:10006E0092E0A0E6ED930197E9F7E8E3F0E08591E1
:10007E009591009761F0A591B59105901590BF01EE
:10008E00F00105900D920197E1F7FB01F0CFEFE53E
:10009E00EDBFE2E0EEBFC0EED0E000C0EFEFEABB96
:1000AE00E0E0EBBBEFEFE7BBE0E0E8BBE4BBE5BBBA
:1000BE00E1BBEFEFE2BBE0E0E3BFE2BFECBFEFBDC1
:1000CE00EEBDEDBDECBDE7BDE6BDEBBDEABDE9BDE8
:1000DE00E8BDE2BDE5BDE4BDE3BDE9BFE5BFE4BFFC
:1000EE00EAB9E0E8E8B9E0E0E0BFE6B9EDB9E6BFAD
:1000FE00809902C0E89401C0689421F8A0E021FC28
:10010E00A1E0A03011F420FC01C00EC05394EAE02F
:10011E00E51511F443945524EAE0E41511F4442452
:10012E005524A8E2B0E01AD021FE05C0A0E020FCC4
:10013E00A1E0A03009F003C0A8E2B0E00FD0E42D9A
:10014E0008D0E8BBE52D05D0EBBB21FA20F8D0CFC7
:10015E00FFCFF0E0E052FF4FE0810895109639F0A6
:10016E008AEF90E00197F1F7A8951197C9F70895D6
:00000001FF
