:020000006AC0D4
:10000200FECFFDCFFCCFFBCFFACFF9CFF8CFF7CFA2
:10001200F6CFF5CFF4CFF3CFF2CFF1CFF0CFEFCFD2
:10002200EECFEDCFECCFEBCF0000000000003000B0
:1000320050494E472D504F4E470046415300494EBE
:10004200535452554343494F4E455300312E476155
:100052006E6120717569656E0074656E6761203925
:100062002070756E746F7300322E44697669657202
:1000720074616E73650043726561646F20706F72A4
:100082003A00527562656E204C6172610045726978
:100092006B204D6F72616C6573004976616E204111
:1000A2006C64617665726100436F6D69656E7A6139
:1000B200000001002D4E414E00494E46000080C016
:1000C200060004002A000100E000B4000200E4007F
:1000D200C0000000F894EE27ECBBF1E0FBBFEBBFE1
:1000E200E5BFF8E1F1BDE1BD8DE0A2E0BB27ED93F4
:1000F2008A95E9F780E092E0A0E6ED930197E9F7AF
:10010200E2ECF0E085919591009761F0A591B591AF
:1001120005901590BF01F00105900D920197E1F74E
:10012200FB01F0CFEFE5EDBFE2E0EEBFC0EED0E0C5
:1001320000C0E0E0EABBEBBBEFEFE7BBE0E0E8BB0F
:10014200E4BBE5BBE1BBEFEFE2BBE0E0E3BFE2BF54
:10015200ECBFEFBDEEBDEDBDECBDE7BDE6BDEBBD59
:10016200EABDE9BDE8BDE2BDE5BDE4BDE3BDE9BF71
:10017200E5BFE4BFEAB9E0E8E8B9E0E6E7B9E1E8FB
:10018200E6B9E0E1E0BFE0E0EDB9E6BFA0E167D1AA
:100192009924882432D1E4E08BD1A2E3B0E04CD19F
:1001A200E6E089D1ACE3B0E089D1E1E081D1A0E41D
:1001B200B0E042D1A8EEB3E086D1AEE4B0E03CD1EB
:1001C200E0E079D1ABE5B0E037D1A8E0B7E07BD190
:1001D200AAE6B0E031D1A8E0B7E0C8D10ED1E2E0A2
:1001E20067D1A8E7B0E06AD172D1A4E8B0E066D1E5
:1001F2006ED1AFE8B0E062D16AD1ACE9B0E05ED1D5
:1002020066D1AAEAB0E05AD12697E1E0E883E0E0BD
:10021200E983EA83EB835BD1A92DA05DF8D0EFE0FF
:1002220047D1A82DA05DF3D0E5E042D1F20131968D
:100232002F01E4E0F0E04DD111F444245524042CC4
:10024200052831F549D14DD114F1809906C0E1E07C
:1002520032D14BD14CD13F0104C0E1E029D145D18B
:1002620049D1ACE2B1E049D14FD152D14DD13DD1CA
:1002720054D159D14DD157D138D133D121F40024A1
:100282000614070409F001C0839447D1DCCF84C06F
:100292002ED11FD151F5E2E0F0E049D14BD11E97AA
:1002A2001CF5829906C0EEE006D11FD120D13F0194
:1002B20004C0EEE0FDD019D11DD1ACE2B1E03DD1D8
:1002C20023D126D121D111D13FD12DD121D12BD171
:1002D2000CD130D11D9721F400240614070409F033
:1002E20001C0939431D1DACF57C0E2E0F0E0F1D00F
:1002F20031F5F2D0F6D014F1819905C0E1E0D8D001
:10030200F4D0F8D005C0E1E0D6D0EFD0F0D03F0174
:10031200ACE2B1E0F2D007D1FBD005D1E6D0FDD0FE
:10032200F3D0F6D0F1D0E1D0DCD021F4E0D0E61564
:10033200F70509F001C08394F0D0DCCF2DC0E3E0D3
:10034200F0E0C7D049F5E2E0F0E0F1D0F3D01E973B
:100352001CF5839905C0EEE0ABD0C7D0CBD005C069
:10036200EEE0A9D0C2D0C3D03F01ACE2B1E0E5D00B
:10037200DAD0CED0D8D0B9D0E7D0C6D0C9D0C4D088
:10038200B4D0D8D01D9721F4B2D0E615F70509F004
:1003920001C09394D9D0DACF2696E9E0E81510F09F
:1003A200E91508F401C030CFF3CEFFCFAA93E8B32A
:1003B200EF70AE2FE881E07FEA2BE8BBC9D0C29A8A
:1003C200C7D0C298C5D072C0AA93A881EFDFE881D6
:1003D200E295E883A881EADF81E18A95F1F766C0B8
:1003E200AA93E881F0E0EC51FF4FE081A981AE0FC2
:1003F200EBDFB980A88022960895A2E0ADD0ACE0F0
:10040200E3DFA1E0A9D0E0E0AE2EBE2E0895AA93CC
:10041200A881AA3011F0BD1448F0E0E0EA93A39459
:10042200AA2DDEDFA881AA3009F440C0B394C09A95
:10043200A881CADFC0983AC0BA93AA931A93E981F5
:10044200FA813196E983FA833197E4911E2FE030E5
:1004520019F0A12FDCDFF3CF188123960895AA9318
:10046200E7B3E06FE7BBBA9AB89AB99AC298C09854
:10047200C198D880E881E058E093E600E881E05432
:10048200E093E700A4E1B0E071D06AD069D068D00F
:10049200A0E28CDF81E28A95F1F7A8E295DFA4E081
:1004A20093DFA5E891DFA6E08FDFA7DF219608950D
:1004B200EA93A0E095CFEA93A1E092CFBDDFACED45
:1004C200B5E054D09ACF52D098DFE0E0F1CFE0E02F
:1004D200EFCFE415F5050895EDE0F0E0EC83FD8340
:1004E2000895AC81BD8112970895A0E290CFE1E01A
:1004F200F0E0089566247724089538D0E1E0EA9385
:10050200A62D6EDFACE783CFEC81EA93AB8168CF97
:10051200AEE27DDFA8ECB0E029C0EC81FD8131972D
:10052200EC83FD830895EC81EA93A98159CFEC8392
:10053200FD830895AC81BD81089518D0EEE0EA9361
:10054200A62D4EDFACE763CFEC81FD813196EFCF74
:1005520082E08A95F1F7089537DFA3E0B0E006C0A4
:10056200A0E324DF81E28A95F1F70895109639F02D
:100572008AEF90E00197F1F7A8951197C9F70895CE
:00000001FF
