:0C00000029C0FECFFDCFFCCFFBCFFACF14
:10000C00F9CFF8CFF7CFF6CFF5CFF4CFF3CFF2CFC0
:10001C00F1CFF0CFEFCFEECFEDCFECCFEBCF0000A9
:10002C0000003F065B4F666D7C077F6F39710100E6
:10003C0002002A00020004002C000A00E0002E003E
:10004C000200EA0038000000F894EE27ECBBF1E067
:10005C00FBBFEBBFE5BFF8E1F1BDE1BD8DE0A2E078
:10006C00BB27ED938A95E9F780E092E0A0E6ED934B
:10007C000197E9F7EAE3F0E085919591009761F03B
:10008C00A591B59105901590BF01F00105900D92C9
:10009C000197E1F7FB01F0CFEFE5EDBFE2E0EEBF3A
:1000AC00C0EED0E00EC0AA93E881E066E7B983E029
:1000BC008A95F1F7369A349BFECF349AE5B12196A6
:1000CC000895E0E0EBBBEABBE5BBEFEFE4BBE0E09F
:1000DC00E2BBEFEFE1BBE8BBE0E0E7BBE3BFE2BFB5
:1000EC00ECBFEFBDEEBDEDBDECBDE7BDE6BDEBBDC0
:1000FC00EABDE9BDE8BDE2BDE5BDE4BDE3BDE5BFDC
:10010C00E4BFE9BFEAB9E0E8E8B9E0E0E0BFE0E667
:10011C00E7B9E1E8E6B9E0B7EF7EE0BFE0E0EDB9C2
:10012C00E6BFB09902C0E89401C0689420F821FEA3
:10013C0002C020FE01C009C0042C052821F4E1E016
:10014C00F0E02F0102C04424552420FA21F8A0E04D
:10015C00AADF5ED0A0E0B0E080EA90E4ADD1A0E0F0
:10016C00B0E088EC92E4A8D1DF01CB01E0E0F0E054
:10017C006FE773E4EFD1E5D07E2EA72D4DD0BE2EC8
:10018C00A72D4FD08E2EA72D51D09E2EA2E353D04B
:10019C00E1E0F0E0E415F50539F5E72D39D0A6E6F8
:1001AC00B6E686EE9FE388D1A0E0B0E080E092E472
:1001BC0034D1C7D06E2EA62D2FD0CE2EA62D31D059
:1001CC00DE2EA62D33D0AE2EE091EB0036D09298D9
:1001DC00939A37D0EA2D37D030D0929A39D0ED2D72
:1001EC0032D038D0EC2D09C0E091EA0026D0929A9A
:1001FC002FD0E92D28D02ED0E82DF0E0E052FF4F83
:10020C00E081E5BB909A9198929822D08ACFFFCF4B
:10021C00F0E031D0CFD00895B0E0E4E6F0E043D088
:10022C000895B0E0EAE0F0E03ED00895BB27EAE0A4
:10023C00F0E03ED00895B0E0D1C1E5BB9098919824
:10024C000895A1E0F8CFF0E0E052FF4FE08108956F
:10025C009398F7CFE5BB9098919A9298F9CFF19536
:10026C00E195F0400895F09560957095E195FF4FFC
:10027C006F4F7F4F08956F2F660F660B762F089583
:10028C000024112490E1AA0FBB1F001C111C0E1A94
:10029C001F0A18F40E0E1F1E01C0A1609A9599F743
:1002AC00FD01D001089512D0EBDF0EF4D8DF0895D4
:1002BC00E894B7FF04C0B195A195B0406894F7FDE0
:1002CC00CEDFDEDFFD010EF4CADF0895E894F7FF00
:1002DC0002C0C5DF6894B7FF06C0B195A195B040C8
:1002EC0000F8039400FA0895552342F4503811F4A1
:1002FC00E0FF04C03196691F791F6BF050E8572757
:10030C0011F45F93C8C05F3F31F0660F000C579536
:10031C006795752F08955F9300200AF0C7C0C0C081
:10032C0050E8192E1522880F991F9527550F879580
:10033C0050E8072E0522660F771F7527550F679516
:10034C000895689401C0E8945F93F2DF703818F058
:10035C007F3F08F4A0C056E1571BAAF451955830C2
:10036C000EF4593030F0EFEFFFEF6FEF7FE777F9D6
:10037C001AC077275523B9F0EE0FFF1F661F771FA2
:10038C005A95D1F710C07727583028F0EF2FF62F59
:10039C00672F5850F9CF552331F076956795F7951F
:1003AC00E7955A95D1F700200AF45DDF5F91089527
:1003BC00689401C0E894309760407040B1F000241C
:1003CC0026F0772312F400944EDF172E7EE11120D5
:1003DC0032F07A95EE0FFF1F661F111CF9CFEF2F2D
:1003EC00F62F612D5F938ADF5F9108954F93AF01D4
:1003FC00FD01DA01AB01BC01CA01402D012C142E08
:10040C004F910895EA0FFB1F681F0895E095F09532
:10041C006095EF5FFF4F6F4F08955F9381DF9038CA
:10042C0039F1703821F1572F591B2BF112F4DEDF03
:10043C00FACF583118F0AA27BB278827583028F054
:10044C00AB2FB82F88275850F9CF552329F0869514
:10045C00B795A7955A95D9F7502D512572F0D2DF43
:10046C0038F46795F795E795739513F41FC0BEDFC5
:10047C0045DF5F910895D8F7FBCFEA1BFB0B680BA8
:10048C0051F010F40094C2DF662392F3EE0FFF1FBD
:10049C00661F7A95CBF7EE27FF27BF015F91089572
:1004AC00EFEFFFEF6FE77FEF5F910895EFEFFFEF57
:1004BC006FE77FE75F9108955F9332DF703859F3F0
:1004CC00903849F301240894791F23F424F3002075
:1004DC003AF3ECCF0F921F932F933F934F93112727
:1004EC0022279927689FA0018F9F302D410D591FFE
:1004FC006B9F300D411D591F8E9F27D0BF9F25D05C
:10050C006A9F23D0BE9F1DD0AF9F1BD0AE9F110DF5
:10051C00291F391F491F591FE32FF42F652F522F05
:10052C004F913F912F911F910F9066232AF0550FF9
:10053C00EE1FFF1F661F02C073954BF2D5DE5F9155
:10054C000895100D211D391F02C0200D311D491FAA
:10055C00591F08955F93E4DE703821F411200AF4DA
:10056C009FCFA4CF903809F496CF01240894970B11
:10057C001BF4D4F30020F3CF792F1F932F933F93C9
:10058C004F931124112722273327A90190E2AE178C
:10059C00BF078607410730F0AE1BBF0B860B410B24
:1005AC00089401C08894551F221F331F111CAA1FC9
:1005BC00BB1F881F441F9A9551F7F901612D4F916C
:1005CC003F912F911F91662332F0550FEE1FFF1FA5
:1005DC00661F7A954BF288DE5F910895109639F07C
:1005EC00A8958AEF90E00197F1F71197C9F7089554
:00000001FF
