:0E00000021C0FECFFDCFFCCFFBCFFACFF9CF52
:10000E00F8CFF7CFF6CFF5CFF4CFF3CFF2CFF1CFC6
:10001E00F0CFEFCFEECFEDCFECCFEBCF3F065B4F78
:10002E00666D7C077F6F777F393F79717D00110098
:10003E00E0002A000000F894EE27ECBBF1E0FBBFD5
:10004E00EBBFE5BFF8E1F1BDE1BD8DE0A2E0BB275E
:10005E00ED938A95E9F780E092E0A0E6ED930197A3
:10006E00E9F7ECE3F0E085919591009761F0A591A9
:10007E00B59105901590BF01F00105900D92019775
:10008E00E1F7FB01F0CFEFE5EDBFE2E0EEBFC0EE32
:10009E00D0E000C0E0E0EABBEBBBEFEFE7BBE0E097
:1000AE00E8BBEFE0E4BBE0EFE5BBE0E0E1BBE2BBC9
:1000BE00E3BFE2BFECBFEFBDEEBDEDBDECBDE7BDF6
:1000CE00E6BDEBBDEABDE9BDE8BDE2BDE5BDE4BD03
:1000DE00E3BDE9BFE5BFE4BFEAB9E0E8E8B9E0E0B7
:1000EE00E0BFE6B9EDB9E6BFEEEF4AD011F4EDE0B0
:1000FE005E2E4DD011F4EEE05E2E4CD011F4EFE0FA
:10010E005E2E4BD011F4E0E15E2EEDEF39D011F4FE
:10011E00E9E05E2E3CD011F4EAE05E2E3BD011F405
:10012E00EBE05E2E3AD011F4ECE05E2EEBEF28D031
:10013E0011F4E5E05E2E2BD011F4E6E05E2E2AD00F
:10014E0011F4E7E05E2E29D011F4E8E05E2EE7EF21
:10015E0017D011F4E1E05E2E1AD011F4E2E05E2E1B
:10016E0019D011F4E3E05E2E18D011F4E4E05E2E07
:10017E00E52DF0E0E052FF4FE081E8BBB5CFFFCFB9
:10018E00E5BBE3B3E07F4E2EE0EEE4150895E0ED1F
:10019E00E4150895E0EBE4150895E0E7E4150895FD
:00000001FF
