:040000001DC0FECF52
:10000400FDCFFCCFFBCFFACFF9CFF8CFF7CFF6CFA8
:10001400F5CFF4CFF3CFF2CFF1CFF0CFEFCF000095
:1000240000000000000000000000020002002200A6
:100034000A00040024000000F894EE27ECBBF1E071
:10004400FBBFEBBFE5BFE6BFF8E1F1BDE1BD8DE06D
:10005400A2E0BB27ED938A95E9F780E092E0A0E661
:10006400ED930197E9F7EEE2F0E085919591009721
:1000740061F0A591B59105901590BF01F00105902F
:100084000D920197E1F7FB01F0CFEFE5EDBFE2E060
:10009400EEBFC0EED0E06CC0BA93AA93AA24BB24EE
:1000A40067D1AE16BF060CF05FC065D13097E1F0A2
:1000B40062D1E130A0E0FA0711F4EAE014C05BD1A8
:1000C400E230A0E0FA0711F4EAE00DC054D1E330C5
:1000D400A0E0FA0711F4E8E006C04DD1E430A0E056
:1000E400FA0729F4E2E0EBBBA4EFB1E06BD19E99EF
:1000F40002C0E89401C0689435F826FE05C0A0E06B
:1001040035FCA1E0A03009F01EC0E0E0EBBB3CD11F
:10011400CE16DF06B4F49C9902C0E89401C068943A
:1001240033F824FE02C033D109F002C02DD16F018F
:1001340033D111F433FC01C001C033D133FA24F8B4
:10014400E6CFCC24DD24A0E026FCA1E0A03011F40D
:1001540035FC01C003C0A5E0B0E034D135FA26F87F
:10016400F50131965F019CCFE0E0EBBB2296089548
:10017400EFE0EABBE0E0EBBBE7BBE8BBE4BBEFEFDF
:10018400E5BBE0E0E1BBE2BBE6B9E7B9E3BFE2BF50
:10019400E1BFEFBDEEBDEDBDECBDE5BDE4BDEBBD26
:1001A400EABDE9BDE8BDE9BFE5BFE6BFEAB9E0E8FD
:1001B400E8B9E0E0EDB99C9902C0E89401C0689404
:1001C40033F824FE02C0E3D009F003C0E3E0F0E01A
:1001D4002F01E2D011F433FC01C001C0E2D033FAA4
:1001E40024F89D9902C0E89401C0689434F825FE6F
:1001F40005C0A0E034FCA1E0A03009F002C0C4D0E6
:100204002F01A0E025FCA1E0A03011F434FC01C0D2
:1002140001C0C7D034FA25F8042C052809F084C09D
:10022400B3D06E167F060CF07CC0989902C0E89497
:1002340001C0689427F820FE05C0A0E027FCA1E0D7
:10024400A03009F003C0B0D09FD0B6D0A0E020FC0D
:10025400A1E0A03011F427FC01C001C0A2D027FA0C
:1002640020F8999902C0E89401C0689430F821FEFE
:1002740005C0A0E030FCA1E0A03009F004C094D097
:10028400E2E0F0E099D0A0E021FCA1E0A03011F47C
:1002940030FC01C001C085D030FA21F89A9902C01F
:1002A400E89401C0689431F822FE05C0A0E031FC56
:1002B400A1E0A03009F004C077D0E3E0F0E07CD006
:1002C400A0E022FCA1E0A03011F431FC01C001C087
:1002D40068D031FA22F89B9902C0E89401C068946E
:1002E40032F823FE05C0A0E032FCA1E0A03009F002
:1002F40004C05AD0E4E0F0E05FD0A0E023FCA1E029
:10030400A03011F432FC01C001C04BD032FA23F802
:100314002FD0E415F50521F437D03F0129D02F0162
:100324007FCF6624772421C02FD0E415F50599F4F6
:10033400E8E0F0E08E169F064CF436D0E0E0F0E002
:10034400ED93FC93F40131964F01F2CF8824992464
:10035400442455240AC0E3E0F0E0E415F50529F44B
:10036400A0EEB0E099DE04D02F0125CF0000FECF2F
:10037400EAE0F0E00895F501A881B981EE0FFF1FCE
:10038400AE0FBF1F29D00895E1E0F0E00895A0E08A
:1003940033FCA1E0A0300895A0E024FCA1E0A0304B
:1003A4000895AEE1B0E00EC0F201A0EEB0E0EE0FB1
:1003B400FF1FAE0FBF1F0895ED93FC93F20131961A
:1003C4002F010895109639F08AEF90E00197F1F724
:1003D400A8951197C9F70895ED91FC911197089587
:00000001FF
