:020000001DC021
:10000200FECFFDCFFCCFFBCFFACFF9CFF8CFF7CFA2
:10001200F6CFF5CFF4CFF3CFF2CFF1CFF0CFEFCFD2
:10002200EECFEDCFECCFEBCF000103070F1F3F7FE9
:10003200FF000900E0002A000000F894EE27ECBB64
:10004200F1E0FBBFEBBFE5BFF8E1F1BDE1BD8DE043
:10005200A2E0BB27ED938A95E9F780E092E0A0E663
:10006200ED930197E9F7E4E3F0E08591959100972C
:1000720061F0A591B59105901590BF01F001059031
:100082000D920197E1F7FB01F0CFEFE5EDBFE2E062
:10009200EEBFC0EED0E00EC0AA93E881E066E7B9F9
:1000A20083E08A95F1F7369A349BFECF349AE5B114
:1000B20021960895E0E0EABBEBBBEFEFE7BBE0E09F
:1000C200E8BBEFEFE4BBE0E0E5BBE1BBE2BBE3BFD3
:1000D200E2BFECBFEFBDEEBDEDBDECBDE7BDE6BDE1
:1000E200EBBDEABDE9BDE8BDE2BDE5BDE4BDE3BDF2
:1000F200E9BFE5BFE4BFEAB9E0E8E8B9E0E6E7B99D
:10010200E1E8E6B9E0E1E0BFE0E0EDB9E6BFA0E09A
:10011200C3DF4E2E5524A1E0BFDF6E2E7724D2011D
:100122000CD0E8BBA5E0B0E00FD0D30106D0E5BB10
:10013200A5E0B0E009D0EBCFFFCFE0E2F0E025D0C0
:10014200E052FF4FE0810895109639F08AEF90E077
:100152000197F1F7A8951197C9F70895F195E195DF
:10016200F04008950024112490E1AA0FBB1F001C47
:10017200111C0E1A1F0A18F40E0E1F1E01C0A160D8
:100182009A9599F7FD01D001089504D0EBDF0EF4A2
:10019200E5DF0895E894F7FF02C0E0DF6894B7FF57
:1001A20006C0A095B095119600F8039400FA089540
:00000001FF
