:1000000022C0FECFFDCFFCCFFBCFFACFF9CFF8CF88
:10001000F7CFF6CFF5CFF4CFF3CFF2CFF1CFF0CFCC
:10002000EFCFEECFEDCFECCFEBCF000000003F06DF
:100030005B4F666D7C077F6F040006002A000A0094
:10004000E0002E000000F894EE27ECBBF1E0FBBFCF
:10005000EBBFE5BFF8E1F1BDE1BD8DE0A2E0BB275C
:10006000ED938A95E9F780E092E0A0E6ED930197A1
:10007000E9F7E8E3F0E085919591009761F0A591AB
:10008000B59105901590BF01F00105900D92019773
:10009000E1F7FB01F0CFEFE5EDBFE2E0EEBFC0EE30
:1000A000D0E000C0EFEFEABBE0E0EBBBEFEFE7BB77
:1000B000E0E0E8BBEFEFE4BBE0E0E5BBE1BBEFEF86
:1000C000E2BBE0E0E3BFE2BFECBFEFBDEEBDEDBDE4
:1000D000ECBDE7BDE6BDEBBDEABDE9BDE8BDE2BDF7
:1000E000E5BDE4BDE3BDE9BFE5BFE4BFEAB9E0E8D3
:1000F000E8B9E0E0E0BFE6B9EDB9E6BF809B52D0D9
:1001000082994EC044245524E8E5F2E0E415F50553
:100110000CF446C07394EAE0E71511F46394772475
:10012000EAE0E61519F4939466247724E6E0E915ED
:1001300019F466247724992481991BC02697E72D0A
:10014000F0E0EC83FD83E62DF0E0EA83FB83E92D0C
:10015000F0E0E883F983EC81FD813CD0E5BBEA81E6
:10016000FB8138D0EBBBE881F98134D0E8BB26961F
:1001700017C0809902C016D013C0A4E6B0E02ED0FC
:10018000E72DF0E027D0E5BBE62DF0E023D0EBBB78
:10019000E92DF0E01FD0E8BBF20131962F01B4CF7A
:1001A000ADCFFFCF77246624992444245524E72D2E
:1001B000F0E0E052FF4FE081E5BBE62DF0E0E052D9
:1001C000FF4FE081EBBBE92DF0E0E052FF4FE08113
:1001D000E8BB0895E052FF4FE0810895109639F092
:1001E0008AEF90E00197F1F7A8951197C9F7089564
:00000001FF
