:0200000054C0EA
:10000200FECFFDCFFCCFFBCFFACFF9CFF8CFF7CFA2
:10001200F6CFF5CFF4CFF3CFF2CFF1CFF0CFEFCFD2
:10002200EECFEDCFECCFEBCF0000100804020100C1
:1000320041003E003E00000041007E005E000000E4
:1000420000007E004E003C003800020046005D00C9
:100052003E003600000049000700770077000000EC
:1000620000008C00360036003000390041003600B6
:100072003600300039003F003700370000000F0023
:10008200490036003600000049004D0036003600B7
:1000920000004100020004002A000500E0002C00DC
:1000A2006300E50032000000F894EE27ECBBF1E0BB
:1000B200FBBFEBBFE5BFF8E1F1BDE1BD8DE0A2E022
:1000C200BB27ED938A95E9F780E092E0A0E6ED93F5
:1000D2000197E9F7E6E9F0E085919591009761F0E3
:1000E200A591B59105901590BF01F00105900D9273
:1000F2000197E1F7FB01F0CFEFE5EDBFE2E0EEBFE4
:10010200C0EED0E000C0EFEFE1BBE4BBE0E1E5BB55
:1001120044245524EAE0F0E04E165F0694F5882464
:100122009924EAEFF0E08E169F063CF566247724C8
:10013200E5E0F0E06E167F06E4F4A0EEB0E0A60D76
:10014200B71DEC91E095E5BBF201AAE0B0E030D03A
:10015200EB51FF4FDF01F301EE0FFF1FAE0FBF1F89
:10016200EC91E095E2BBA1E015D0F30131963F019D
:10017200DFCFF40131964F01D4CFF20131962F0136
:10018200C9CF0AD009D008D007D006D005D004D0F4
:10019200BFCFFFCFB0E002C0A8ECFCCF109639F081
:1001A2008AEF90E00197F1F7A8951197C9F70895A2
:1001B200FA9FF02DEB9FF00DEA9FE02DF10D0895CF
:00000001FF
