:1000000021C0FECFFDCFFCCFFBCFFACFF9CFF8CF89
:10001000F7CFF6CFF5CFF4CFF3CFF2CFF1CFF0CFCC
:10002000EFCFEECFEDCFECCFEBCF00003F065B4F35
:10003000666D7C077F6F010002002A000A00E00065
:100040002C000000F894EE27ECBBF1E0FBBFEBBF07
:10005000E5BFF8E1F1BDE1BD8DE0A2E0BB27ED9386
:100060008A95E9F780E092E0A0E6ED930197E9F741
:10007000E6E3F0E085919591009761F0A591B59147
:1000800005901590BF01F00105900D920197E1F7E1
:10009000FB01F0CFEFE5EDBFE2E0EEBFC0EED0E058
:1000A00000C0E0E0EABBEBBBEFEFE7BBE0E0E8BBA2
:1000B000E4BBEFEFE5BBE0E0E1BBE2BBE3BFE2BFE7
:1000C000ECBFEFBDEEBDEDBDECBDE7BDE6BDEBBDEC
:1000D000EABDE9BDE8BDE2BDE5BDE4BDE3BDE9BF04
:1000E000E5BFE4BFEAB9E0E8E8B9E0E0E0BFE6B9BF
:1000F000EDB9E6BF3BD047D0EB3018F037D0E0E0A9
:100100004ED034D040D05E2E0DD0E52DF0E0E05240
:10011000FF4FE081E8BB999903C0E52D27D03FD080
:10012000F3CFFFCF989902C0E89401C0689421F8FA
:1001300020FE05C0A0E021FCA1E0A03009F008C02D
:100140005394EAE05E1608F05524A8E2B0E011D01E
:10015000A0E020FCA1E0A03011F421FC01C003C00C
:10016000A8E2B0E006D021FA20F80895A0E0B0E0BF
:100170000895109639F08AEF90E00197F1F7A8956D
:100180001197C9F70895E199FECFFF93FFB7F8944F
:10019000AEBBBFBBE09AEDB3FFBFFF910895E19BFB
:1001A00002C0A895FCCF9FB7F894AEBBBFBBE09A46
:1001B0008DB3E81719F0EDBBE29AE19A9FBF08955D
:00000001FF
